{
  "address": "0x31b6ED8Dc8ced0B5C7B9C0FDF3066F58D99B52E7",
  "abi": [
    {
      "inputs": [],
      "stateMutability": "nonpayable",
      "type": "constructor"
    },
    {
      "anonymous": false,
      "inputs": [
        {
          "indexed": true,
          "internalType": "address",
          "name": "owner",
          "type": "address"
        },
        {
          "indexed": true,
          "internalType": "address",
          "name": "spender",
          "type": "address"
        },
        {
          "indexed": false,
          "internalType": "uint256",
          "name": "amount",
          "type": "uint256"
        }
      ],
      "name": "Approval",
      "type": "event"
    },
    {
      "anonymous": false,
      "inputs": [
        {
          "indexed": true,
          "internalType": "address",
          "name": "delegator",
          "type": "address"
        },
        {
          "indexed": true,
          "internalType": "address",
          "name": "fromDelegate",
          "type": "address"
        },
        {
          "indexed": true,
          "internalType": "address",
          "name": "toDelegate",
          "type": "address"
        }
      ],
      "name": "DelegateChanged",
      "type": "event"
    },
    {
      "anonymous": false,
      "inputs": [
        {
          "indexed": true,
          "internalType": "address",
          "name": "delegate",
          "type": "address"
        },
        {
          "indexed": false,
          "internalType": "uint256",
          "name": "previousBalance",
          "type": "uint256"
        },
        {
          "indexed": false,
          "internalType": "uint256",
          "name": "newBalance",
          "type": "uint256"
        }
      ],
      "name": "DelegateVotesChanged",
      "type": "event"
    },
    {
      "anonymous": false,
      "inputs": [
        {
          "indexed": true,
          "internalType": "bytes32",
          "name": "role",
          "type": "bytes32"
        },
        {
          "indexed": true,
          "internalType": "bytes32",
          "name": "previousAdminRole",
          "type": "bytes32"
        },
        {
          "indexed": true,
          "internalType": "bytes32",
          "name": "newAdminRole",
          "type": "bytes32"
        }
      ],
      "name": "RoleAdminChanged",
      "type": "event"
    },
    {
      "anonymous": false,
      "inputs": [
        {
          "indexed": true,
          "internalType": "bytes32",
          "name": "role",
          "type": "bytes32"
        },
        {
          "indexed": true,
          "internalType": "address",
          "name": "account",
          "type": "address"
        },
        {
          "indexed": true,
          "internalType": "address",
          "name": "sender",
          "type": "address"
        }
      ],
      "name": "RoleGranted",
      "type": "event"
    },
    {
      "anonymous": false,
      "inputs": [
        {
          "indexed": true,
          "internalType": "bytes32",
          "name": "role",
          "type": "bytes32"
        },
        {
          "indexed": true,
          "internalType": "address",
          "name": "account",
          "type": "address"
        },
        {
          "indexed": true,
          "internalType": "address",
          "name": "sender",
          "type": "address"
        }
      ],
      "name": "RoleRevoked",
      "type": "event"
    },
    {
      "anonymous": false,
      "inputs": [
        {
          "indexed": true,
          "internalType": "address",
          "name": "from",
          "type": "address"
        },
        {
          "indexed": true,
          "internalType": "address",
          "name": "to",
          "type": "address"
        },
        {
          "indexed": false,
          "internalType": "uint256",
          "name": "amount",
          "type": "uint256"
        }
      ],
      "name": "Transfer",
      "type": "event"
    },
    {
      "inputs": [],
      "name": "DEFAULT_ADMIN_ROLE",
      "outputs": [
        {
          "internalType": "bytes32",
          "name": "",
          "type": "bytes32"
        }
      ],
      "stateMutability": "view",
      "type": "function"
    },
    {
      "inputs": [],
      "name": "DELEGATION_TYPEHASH",
      "outputs": [
        {
          "internalType": "bytes32",
          "name": "",
          "type": "bytes32"
        }
      ],
      "stateMutability": "view",
      "type": "function"
    },
    {
      "inputs": [],
      "name": "DOMAIN_TYPEHASH",
      "outputs": [
        {
          "internalType": "bytes32",
          "name": "",
          "type": "bytes32"
        }
      ],
      "stateMutability": "view",
      "type": "function"
    },
    {
      "inputs": [],
      "name": "MINTER_ROLE",
      "outputs": [
        {
          "internalType": "bytes32",
          "name": "",
          "type": "bytes32"
        }
      ],
      "stateMutability": "view",
      "type": "function"
    },
    {
      "inputs": [
        {
          "internalType": "address",
          "name": "account",
          "type": "address"
        },
        {
          "internalType": "address",
          "name": "spender",
          "type": "address"
        }
      ],
      "name": "allowance",
      "outputs": [
        {
          "internalType": "uint256",
          "name": "",
          "type": "uint256"
        }
      ],
      "stateMutability": "view",
      "type": "function"
    },
    {
      "inputs": [
        {
          "internalType": "address",
          "name": "spender",
          "type": "address"
        },
        {
          "internalType": "uint256",
          "name": "rawAmount",
          "type": "uint256"
        }
      ],
      "name": "approve",
      "outputs": [
        {
          "internalType": "bool",
          "name": "",
          "type": "bool"
        }
      ],
      "stateMutability": "nonpayable",
      "type": "function"
    },
    {
      "inputs": [
        {
          "internalType": "address",
          "name": "account",
          "type": "address"
        }
      ],
      "name": "balanceOf",
      "outputs": [
        {
          "internalType": "uint256",
          "name": "",
          "type": "uint256"
        }
      ],
      "stateMutability": "view",
      "type": "function"
    },
    {
      "inputs": [
        {
          "internalType": "address",
          "name": "",
          "type": "address"
        },
        {
          "internalType": "uint32",
          "name": "",
          "type": "uint32"
        }
      ],
      "name": "checkpoints",
      "outputs": [
        {
          "internalType": "uint32",
          "name": "fromBlock",
          "type": "uint32"
        },
        {
          "internalType": "uint96",
          "name": "votes",
          "type": "uint96"
        }
      ],
      "stateMutability": "view",
      "type": "function"
    },
    {
      "inputs": [],
      "name": "decimals",
      "outputs": [
        {
          "internalType": "uint8",
          "name": "",
          "type": "uint8"
        }
      ],
      "stateMutability": "view",
      "type": "function"
    },
    {
      "inputs": [
        {
          "internalType": "address",
          "name": "delegatee",
          "type": "address"
        }
      ],
      "name": "delegate",
      "outputs": [],
      "stateMutability": "nonpayable",
      "type": "function"
    },
    {
      "inputs": [
        {
          "internalType": "address",
          "name": "delegatee",
          "type": "address"
        },
        {
          "internalType": "uint256",
          "name": "nonce",
          "type": "uint256"
        },
        {
          "internalType": "uint256",
          "name": "expiry",
          "type": "uint256"
        },
        {
          "internalType": "uint8",
          "name": "v",
          "type": "uint8"
        },
        {
          "internalType": "bytes32",
          "name": "r",
          "type": "bytes32"
        },
        {
          "internalType": "bytes32",
          "name": "s",
          "type": "bytes32"
        }
      ],
      "name": "delegateBySig",
      "outputs": [],
      "stateMutability": "nonpayable",
      "type": "function"
    },
    {
      "inputs": [
        {
          "internalType": "address",
          "name": "",
          "type": "address"
        }
      ],
      "name": "delegates",
      "outputs": [
        {
          "internalType": "address",
          "name": "",
          "type": "address"
        }
      ],
      "stateMutability": "view",
      "type": "function"
    },
    {
      "inputs": [
        {
          "internalType": "address",
          "name": "account",
          "type": "address"
        }
      ],
      "name": "getCurrentVotes",
      "outputs": [
        {
          "internalType": "uint96",
          "name": "",
          "type": "uint96"
        }
      ],
      "stateMutability": "view",
      "type": "function"
    },
    {
      "inputs": [
        {
          "internalType": "address",
          "name": "account",
          "type": "address"
        },
        {
          "internalType": "uint256",
          "name": "blockNumber",
          "type": "uint256"
        }
      ],
      "name": "getPriorVotes",
      "outputs": [
        {
          "internalType": "uint96",
          "name": "",
          "type": "uint96"
        }
      ],
      "stateMutability": "view",
      "type": "function"
    },
    {
      "inputs": [
        {
          "internalType": "bytes32",
          "name": "role",
          "type": "bytes32"
        }
      ],
      "name": "getRoleAdmin",
      "outputs": [
        {
          "internalType": "bytes32",
          "name": "",
          "type": "bytes32"
        }
      ],
      "stateMutability": "view",
      "type": "function"
    },
    {
      "inputs": [
        {
          "internalType": "bytes32",
          "name": "role",
          "type": "bytes32"
        },
        {
          "internalType": "uint256",
          "name": "index",
          "type": "uint256"
        }
      ],
      "name": "getRoleMember",
      "outputs": [
        {
          "internalType": "address",
          "name": "",
          "type": "address"
        }
      ],
      "stateMutability": "view",
      "type": "function"
    },
    {
      "inputs": [
        {
          "internalType": "bytes32",
          "name": "role",
          "type": "bytes32"
        }
      ],
      "name": "getRoleMemberCount",
      "outputs": [
        {
          "internalType": "uint256",
          "name": "",
          "type": "uint256"
        }
      ],
      "stateMutability": "view",
      "type": "function"
    },
    {
      "inputs": [
        {
          "internalType": "bytes32",
          "name": "role",
          "type": "bytes32"
        },
        {
          "internalType": "address",
          "name": "account",
          "type": "address"
        }
      ],
      "name": "grantRole",
      "outputs": [],
      "stateMutability": "nonpayable",
      "type": "function"
    },
    {
      "inputs": [
        {
          "internalType": "bytes32",
          "name": "role",
          "type": "bytes32"
        },
        {
          "internalType": "address",
          "name": "account",
          "type": "address"
        }
      ],
      "name": "hasRole",
      "outputs": [
        {
          "internalType": "bool",
          "name": "",
          "type": "bool"
        }
      ],
      "stateMutability": "view",
      "type": "function"
    },
    {
      "inputs": [
        {
          "internalType": "address",
          "name": "to",
          "type": "address"
        },
        {
          "internalType": "uint256",
          "name": "rawAmount",
          "type": "uint256"
        }
      ],
      "name": "mint",
      "outputs": [],
      "stateMutability": "nonpayable",
      "type": "function"
    },
    {
      "inputs": [],
      "name": "name",
      "outputs": [
        {
          "internalType": "string",
          "name": "",
          "type": "string"
        }
      ],
      "stateMutability": "view",
      "type": "function"
    },
    {
      "inputs": [
        {
          "internalType": "address",
          "name": "",
          "type": "address"
        }
      ],
      "name": "nonces",
      "outputs": [
        {
          "internalType": "uint256",
          "name": "",
          "type": "uint256"
        }
      ],
      "stateMutability": "view",
      "type": "function"
    },
    {
      "inputs": [
        {
          "internalType": "address",
          "name": "",
          "type": "address"
        }
      ],
      "name": "numCheckpoints",
      "outputs": [
        {
          "internalType": "uint32",
          "name": "",
          "type": "uint32"
        }
      ],
      "stateMutability": "view",
      "type": "function"
    },
    {
      "inputs": [
        {
          "internalType": "bytes32",
          "name": "role",
          "type": "bytes32"
        },
        {
          "internalType": "address",
          "name": "account",
          "type": "address"
        }
      ],
      "name": "renounceRole",
      "outputs": [],
      "stateMutability": "nonpayable",
      "type": "function"
    },
    {
      "inputs": [
        {
          "internalType": "bytes32",
          "name": "role",
          "type": "bytes32"
        },
        {
          "internalType": "address",
          "name": "account",
          "type": "address"
        }
      ],
      "name": "revokeRole",
      "outputs": [],
      "stateMutability": "nonpayable",
      "type": "function"
    },
    {
      "inputs": [],
      "name": "symbol",
      "outputs": [
        {
          "internalType": "string",
          "name": "",
          "type": "string"
        }
      ],
      "stateMutability": "view",
      "type": "function"
    },
    {
      "inputs": [],
      "name": "totalSupply",
      "outputs": [
        {
          "internalType": "uint256",
          "name": "",
          "type": "uint256"
        }
      ],
      "stateMutability": "view",
      "type": "function"
    },
    {
      "inputs": [
        {
          "internalType": "address",
          "name": "dst",
          "type": "address"
        },
        {
          "internalType": "uint256",
          "name": "rawAmount",
          "type": "uint256"
        }
      ],
      "name": "transfer",
      "outputs": [
        {
          "internalType": "bool",
          "name": "",
          "type": "bool"
        }
      ],
      "stateMutability": "nonpayable",
      "type": "function"
    },
    {
      "inputs": [
        {
          "internalType": "address",
          "name": "src",
          "type": "address"
        },
        {
          "internalType": "address",
          "name": "dst",
          "type": "address"
        },
        {
          "internalType": "uint256",
          "name": "rawAmount",
          "type": "uint256"
        }
      ],
      "name": "transferFrom",
      "outputs": [
        {
          "internalType": "bool",
          "name": "",
          "type": "bool"
        }
      ],
      "stateMutability": "nonpayable",
      "type": "function"
    }
  ],
  "transactionHash": "0xae2142d6b1667fcd93c9ced4860394c66ccbb48c6e6e9aef4921ed7b88e61e46",
  "args": [],
  "solcInputHash": "11d66bf18f06eb59438a5a85f1c0fbef",
  "bytecode": "0x60c060405260096080819052682334b730aa37b5b2b760b91b60a09081526200002c91600291906200019a565b5060408051808201909152600380825262464e4160e81b60209092019182526200005791816200019a565b506004805460ff191660121790553480156200007257600080fd5b506200008060003362000086565b62000236565b62000092828262000096565b5050565b600082815260208181526040909120620000bb91839062000ed66200010f821b17901c565b156200009257620000cb6200012f565b6001600160a01b0316816001600160a01b0316837f2f8788117e7eff1d82e926ec794901d17c78024a50270940304540a733656f0d60405160405180910390a45050565b600062000126836001600160a01b03841662000133565b90505b92915050565b3390565b600062000141838362000182565b620001795750815460018181018455600084815260208082209093018490558454848252828601909352604090209190915562000129565b50600062000129565b60009081526001919091016020526040902054151590565b828054600181600116156101000203166002900490600052602060002090601f016020900481019282601f10620001dd57805160ff19168380011785556200020d565b828001600101855582156200020d579182015b828111156200020d578251825591602001919060010190620001f0565b506200021b9291506200021f565b5090565b5b808211156200021b576000815560010162000220565b61224b80620002466000396000f3fe608060405234801561001057600080fd5b50600436106101cf5760003560e01c8063782d6fe111610104578063b4b5ea57116100a2578063d547741f11610071578063d547741f146103c8578063dd62ed3e146103db578063e7a324dc146103ee578063f1127ed8146103f6576101cf565b8063b4b5ea5714610387578063c3cda5201461039a578063ca15c873146103ad578063d5391393146103c0576101cf565b806391d14854116100de57806391d148541461035157806395d89b4114610364578063a217fddf1461036c578063a9059cbb14610374576101cf565b8063782d6fe11461030b5780637ecebe001461032b5780639010d07c1461033e576101cf565b8063313ce56711610171578063587cde1e1161014b578063587cde1e146102a55780635c19a95c146102c55780636fcfff45146102d857806370a08231146102f8576101cf565b8063313ce5671461026a57806336568abe1461027f57806340c10f1914610292576101cf565b806320606b70116101ad57806320606b701461022757806323b872dd1461022f578063248a9ca3146102425780632f2ff15d14610255576101cf565b806306fdde03146101d4578063095ea7b3146101f257806318160ddd14610212575b600080fd5b6101dc610417565b6040516101e99190611bb0565b60405180910390f35b610205610200366004611972565b6104aa565b6040516101e99190611b36565b61021a610569565b6040516101e99190611b41565b61021a61056f565b61020561023d366004611932565b610593565b61021a610250366004611a3a565b6106da565b610268610263366004611a52565b6106ef565b005b610272610740565b6040516101e99190611fda565b61026861028d366004611a52565b610749565b6102686102a0366004611972565b61078b565b6102b86102b33660046118e3565b61082b565b6040516101e99190611b22565b6102686102d33660046118e3565b610846565b6102eb6102e63660046118e3565b610853565b6040516101e99190611faa565b61021a6103063660046118e3565b61086b565b61031e610319366004611972565b61088f565b6040516101e99190611fe8565b61021a6103393660046118e3565b610a9d565b6102b861034c366004611a76565b610aaf565b61020561035f366004611a52565b610ace565b6101dc610ae6565b61021a610b47565b610205610382366004611972565b610b4c565b61031e6103953660046118e3565b610b88565b6102686103a836600461199c565b610bf8565b61021a6103bb366004611a3a565b610dd4565b61021a610deb565b6102686103d6366004611a52565b610e0f565b61021a6103e93660046118fe565b610e49565b61021a610e7d565b6104096104043660046119fb565b610ea1565b6040516101e9929190611fbb565b60028054604080516020601f60001961010060018716150201909416859004938401819004810282018101909252828152606093909290918301828280156104a05780601f10610475576101008083540402835291602001916104a0565b820191906000526020600020905b81548152906001019060200180831161048357829003601f168201915b5050505050905090565b6000806000198314156104c057506000196104e5565b6104e2836040518060600160405280602a8152602001612065602a9139610eeb565b90505b3360008181526005602090815260408083206001600160a01b03891680855292529182902080546001600160601b0319166001600160601b03861617905590519091907f8c5be1e5ebec7d5bd14f71427d1e84f3dd0314c0f7b2291e5b200ac8c7c3b92590610555908590611fe8565b60405180910390a360019150505b92915050565b60015490565b7f8cad95687ba82c2ce50e74f7b754645e5117c3a5bec8151c0726d5857980a86681565b6001600160a01b03831660009081526005602090815260408083203380855290835281842054825160608101909352602a80845291936001600160601b039091169285926105eb928892919061206590830139610eeb565b9050866001600160a01b0316836001600160a01b03161415801561061857506001600160601b0382811614155b156106c2576000610642838360405180608001604052806042815260200161213a60429139610f1a565b6001600160a01b038981166000818152600560209081526040808320948a16808452949091529081902080546001600160601b0319166001600160601b0386161790555192935090917f8c5be1e5ebec7d5bd14f71427d1e84f3dd0314c0f7b2291e5b200ac8c7c3b925906106b8908590611fe8565b60405180910390a3505b6106cd878783610f59565b5060019695505050505050565b60009081526020819052604090206002015490565b60008281526020819052604090206002015461070d9061035f6110ff565b6107325760405162461bcd60e51b815260040161072990611c90565b60405180910390fd5b61073c8282611103565b5050565b60045460ff1690565b6107516110ff565b6001600160a01b0316816001600160a01b0316146107815760405162461bcd60e51b815260040161072990611f5b565b61073c828261116c565b6107b57f9f2df0fed2c77648de5860a4cc508cd0818c85b8b8a1ab4ceeef8d981c8956a633610ace565b6107d15760405162461bcd60e51b815260040161072990611d83565b60006107f5826040518060600160405280602781526020016120bc60279139610eeb565b905061080183826111d5565b6001600160a01b038084166000908152600760205260408120546108269216836112cb565b505050565b6007602052600090815260409020546001600160a01b031681565b610850338261145d565b50565b60096020526000908152604090205463ffffffff1681565b6001600160a01b03166000908152600660205260409020546001600160601b031690565b60004382106108b05760405162461bcd60e51b815260040161072990611e5d565b6001600160a01b03831660009081526009602052604090205463ffffffff16806108de576000915050610563565b6001600160a01b038416600090815260086020908152604080832063ffffffff60001986018116855292529091205416831061095a576001600160a01b03841660009081526008602090815260408083206000199490940163ffffffff1683529290522054600160201b90046001600160601b03169050610563565b6001600160a01b038416600090815260086020908152604080832083805290915290205463ffffffff16831015610995576000915050610563565b600060001982015b8163ffffffff168163ffffffff161115610a5857600282820363ffffffff160481036109c76118b5565b506001600160a01b038716600090815260086020908152604080832063ffffffff858116855290835292819020815180830190925254928316808252600160201b9093046001600160601b03169181019190915290871415610a33576020015194506105639350505050565b805163ffffffff16871115610a4a57819350610a51565b6001820392505b505061099d565b506001600160a01b038516600090815260086020908152604080832063ffffffff909416835292905220546001600160601b03600160201b9091041691505092915050565b600a6020526000908152604090205481565b6000828152602081905260408120610ac790836114e7565b9392505050565b6000828152602081905260408120610ac790836114f3565b60038054604080516020601f60026000196101006001881615020190951694909404938401819004810282018101909252828152606093909290918301828280156104a05780601f10610475576101008083540402835291602001916104a0565b600081565b600080610b71836040518060600160405280602b81526020016120e3602b9139610eeb565b9050610b7e338583610f59565b5060019392505050565b6001600160a01b03811660009081526009602052604081205463ffffffff1680610bb3576000610ac7565b6001600160a01b0383166000908152600860209081526040808320600019850163ffffffff168452909152902054600160201b90046001600160601b03169392505050565b60007f8cad95687ba82c2ce50e74f7b754645e5117c3a5bec8151c0726d5857980a8666002604051610c2a9190611a97565b6040518091039020610c3a611508565b30604051602001610c4e9493929190611b6e565b60405160208183030381529060405280519060200120905060007fe48329057bfd03d55e49b547132e39cffd9c1820ad7b9d4c5307691425d15adf888888604051602001610c9f9493929190611b4a565b60405160208183030381529060405280519060200120905060008282604051602001610ccc929190611b07565b604051602081830303815290604052805190602001209050600060018288888860405160008152602001604052604051610d099493929190611b92565b6020604051602081039080840390855afa158015610d2b573d6000803e3d6000fd5b5050604051601f1901519150506001600160a01b038116610d5e5760405162461bcd60e51b815260040161072990611ea9565b6001600160a01b0381166000908152600a602052604090208054600181019091558914610d9d5760405162461bcd60e51b815260040161072990611cdf565b87421115610dbd5760405162461bcd60e51b815260040161072990611c03565b610dc7818b61145d565b505050505b505050505050565b60008181526020819052604081206105639061150c565b7f9f2df0fed2c77648de5860a4cc508cd0818c85b8b8a1ab4ceeef8d981c8956a681565b600082815260208190526040902060020154610e2d9061035f6110ff565b6107815760405162461bcd60e51b815260040161072990611e0d565b6001600160a01b0391821660009081526005602090815260408083209390941682529190915220546001600160601b031690565b7fe48329057bfd03d55e49b547132e39cffd9c1820ad7b9d4c5307691425d15adf81565b600860209081526000928352604080842090915290825290205463ffffffff811690600160201b90046001600160601b031682565b6000610ac7836001600160a01b038416611517565b600081600160601b8410610f125760405162461bcd60e51b81526004016107299190611bb0565b509192915050565b6000836001600160601b0316836001600160601b031611158290610f515760405162461bcd60e51b81526004016107299190611bb0565b505050900390565b6001600160a01b038316610f7f5760405162461bcd60e51b815260040161072990611ef4565b6001600160a01b038216610fa55760405162461bcd60e51b815260040161072990611d26565b6001600160a01b03831660009081526006602090815260409182902054825160608101909352603b808452610ff0936001600160601b03909216928592919061217c90830139610f1a565b6001600160a01b03848116600090815260066020908152604080832080546001600160601b0319166001600160601b0396871617905592861682529082902054825160608101909352603580845261105894919091169285929091906121b790830139611561565b6001600160a01b038381166000818152600660205260409081902080546001600160601b0319166001600160601b0395909516949094179093559151908516907fddf252ad1be2c89b69c2b068fc378daa952ba7f163c4a11628f55a4df523b3ef906110c5908590611fe8565b60405180910390a36001600160a01b03808416600090815260076020526040808220548584168352912054610826929182169116836112cb565b3390565b600082815260208190526040902061111b9082610ed6565b1561073c576111286110ff565b6001600160a01b0316816001600160a01b0316837f2f8788117e7eff1d82e926ec794901d17c78024a50270940304540a733656f0d60405160405180910390a45050565b6000828152602081905260409020611184908261159d565b1561073c576111916110ff565b6001600160a01b0316816001600160a01b0316837ff6391f5c32d9c69d2a47ea670b442974b53935d1edc7fd64eb21e047a839171b60405160405180910390a45050565b6001600160a01b0382166111fb5760405162461bcd60e51b815260040161072990611dca565b600180546001600160601b038381169091019091556001600160a01b03831660009081526006602090815260409182902054825160608101909352602a80845261125594919091169285929091906121ec90830139611561565b6001600160a01b03831660008181526006602052604080822080546001600160601b0319166001600160601b03959095169490941790935591519091907fddf252ad1be2c89b69c2b068fc378daa952ba7f163c4a11628f55a4df523b3ef906112bf908590611fe8565b60405180910390a35050565b816001600160a01b0316836001600160a01b0316141580156112f657506000816001600160601b0316115b15610826576001600160a01b038316156113ae576001600160a01b03831660009081526009602052604081205463ffffffff169081611336576000611375565b6001600160a01b0385166000908152600860209081526040808320600019860163ffffffff168452909152902054600160201b90046001600160601b03165b9050600061139c82856040518060600160405280602d815260200161208f602d9139610f1a565b90506113aa868484846115b2565b5050505b6001600160a01b03821615610826576001600160a01b03821660009081526009602052604081205463ffffffff1690816113e9576000611428565b6001600160a01b0384166000908152600860209081526040808320600019860163ffffffff168452909152902054600160201b90046001600160601b03165b9050600061144f82856040518060600160405280602c815260200161210e602c9139611561565b9050610dcc858484846115b2565b6001600160a01b03808316600081815260076020818152604080842080546006845282862054949093528787166001600160a01b031984168117909155905191909516946001600160601b039092169391928592917f3134e8a2e6d97e929a7e54011ea5485d7d196dd5f0ba4d4ef95803e8e3fc257f9190a46114e18284836112cb565b50505050565b6000610ac78383611767565b6000610ac7836001600160a01b0384166117ac565b4690565b6000610563826117c4565b600061152383836117ac565b61155957508154600181810184556000848152602080822090930184905584548482528286019093526040902091909155610563565b506000610563565b6000838301826001600160601b0380871690831610156115945760405162461bcd60e51b81526004016107299190611bb0565b50949350505050565b6000610ac7836001600160a01b0384166117c8565b60006115d64360405180606001604052806039815260200161202c6039913961188e565b905060008463ffffffff1611801561161f57506001600160a01b038516600090815260086020908152604080832063ffffffff6000198901811685529252909120548282169116145b1561167e576001600160a01b0385166000908152600860209081526040808320600019880163ffffffff168452909152902080546fffffffffffffffffffffffff000000001916600160201b6001600160601b0385160217905561171d565b60408051808201825263ffffffff80841682526001600160601b0380861660208085019182526001600160a01b038b166000818152600883528781208c871682528352878120965187549451909516600160201b026fffffffffffffffffffffffff000000001995871663ffffffff19958616179590951694909417909555938252600990935292909220805460018801909316929091169190911790555b846001600160a01b03167fdec2bacdd2f05b59de34da9b523dff8be42e5e38e818c82fdb0bae774387a7248484604051611758929190611ffc565b60405180910390a25050505050565b8154600090821061178a5760405162461bcd60e51b815260040161072990611c4e565b82600001828154811061179957fe5b9060005260206000200154905092915050565b60009081526001919091016020526040902054151590565b5490565b6000818152600183016020526040812054801561188457835460001980830191908101906000908790839081106117fb57fe5b906000526020600020015490508087600001848154811061181857fe5b60009182526020808320909101929092558281526001898101909252604090209084019055865487908061184857fe5b60019003818190600052602060002001600090559055866001016000878152602001908152602001600020600090556001945050505050610563565b6000915050610563565b600081600160201b8410610f125760405162461bcd60e51b81526004016107299190611bb0565b604080518082019091526000808252602082015290565b80356001600160a01b038116811461056357600080fd5b6000602082840312156118f4578081fd5b610ac783836118cc565b60008060408385031215611910578081fd5b61191a84846118cc565b915061192984602085016118cc565b90509250929050565b600080600060608486031215611946578081fd5b833561195181612016565b9250602084013561196181612016565b929592945050506040919091013590565b60008060408385031215611984578182fd5b61198e84846118cc565b946020939093013593505050565b60008060008060008060c087890312156119b4578182fd5b6119be88886118cc565b95506020870135945060408701359350606087013560ff811681146119e1578283fd5b9598949750929560808101359460a0909101359350915050565b60008060408385031215611a0d578182fd5b611a1784846118cc565b9150602083013563ffffffff81168114611a2f578182fd5b809150509250929050565b600060208284031215611a4b578081fd5b5035919050565b60008060408385031215611a64578182fd5b823591506020830135611a2f81612016565b60008060408385031215611a88578182fd5b50508035926020909101359150565b6000808354600180821660008114611ab65760018114611acd57611afc565b60ff198316865260028304607f1686019350611afc565b600283048786526020808720875b83811015611af45781548a820152908501908201611adb565b505050860193505b509195945050505050565b61190160f01b81526002810192909252602282015260420190565b6001600160a01b0391909116815260200190565b901515815260200190565b90815260200190565b9384526001600160a01b039290921660208401526040830152606082015260800190565b938452602084019290925260408301526001600160a01b0316606082015260800190565b93845260ff9290921660208401526040830152606082015260800190565b6000602080835283518082850152825b81811015611bdc57858101830151858201604001528201611bc0565b81811115611bed5783604083870101525b50601f01601f1916929092016040019392505050565b6020808252602b908201527f46696e61546f6b656e3a3a64656c656761746542795369673a207369676e617460408201526a1d5c9948195e1c1a5c995960aa1b606082015260800190565b60208082526022908201527f456e756d657261626c655365743a20696e646578206f7574206f6620626f756e604082015261647360f01b606082015260800190565b6020808252602f908201527f416363657373436f6e74726f6c3a2073656e646572206d75737420626520616e60408201526e0818591b5a5b881d1bc819dc985b9d608a1b606082015260800190565b60208082526027908201527f46696e61546f6b656e3a3a64656c656761746542795369673a20696e76616c6960408201526664206e6f6e636560c81b606082015260800190565b6020808252603f908201527f46696e61546f6b656e3a3a5f7472616e73666572546f6b656e733a2063616e6e60408201527f6f74207472616e7366657220746f20746865207a65726f206164647265737300606082015260800190565b60208082526027908201527f46696e61546f6b656e3a3a6d696e743a2063616c6c6572206973206e6f7420616040820152661036b4b73a32b960c91b606082015260800190565b60208082526023908201527f46696e61546f6b656e3a206d696e7420746f20746865207a65726f206164647260408201526265737360e81b606082015260800190565b60208082526030908201527f416363657373436f6e74726f6c3a2073656e646572206d75737420626520616e60408201526f2061646d696e20746f207265766f6b6560801b606082015260800190565b6020808252602c908201527f46696e61546f6b656e3a3a6765745072696f72566f7465733a206e6f7420796560408201526b1d0819195d195c9b5a5b995960a21b606082015260800190565b6020808252602b908201527f46696e61546f6b656e3a3a64656c656761746542795369673a20696e76616c6960408201526a64207369676e617475726560a81b606082015260800190565b60208082526041908201527f46696e61546f6b656e3a3a5f7472616e73666572546f6b656e733a2063616e6e60408201527f6f74207472616e736665722066726f6d20746865207a65726f206164647265736060820152607360f81b608082015260a00190565b6020808252602f908201527f416363657373436f6e74726f6c3a2063616e206f6e6c792072656e6f756e636560408201526e103937b632b9903337b91039b2b63360891b606082015260800190565b63ffffffff91909116815260200190565b63ffffffff9290921682526001600160601b0316602082015260400190565b60ff91909116815260200190565b6001600160601b0391909116815260200190565b6001600160601b0392831681529116602082015260400190565b6001600160a01b038116811461085057600080fdfe46696e61546f6b656e3a3a5f7772697465436865636b706f696e743a20626c6f636b206e756d6265722065786365656473203332206269747346696e61546f6b656e3a3a617070726f76653a20616d6f756e742065786365656473203936206269747346696e61546f6b656e3a3a5f6d6f7665566f7465733a20766f746520616d6f756e7420756e646572666c6f777346696e61546f6b656e3a3a6d696e743a20616d6f756e742065786365656473203936206269747346696e61546f6b656e3a3a7472616e736665723a20616d6f756e742065786365656473203936206269747346696e61546f6b656e3a3a5f6d6f7665566f7465733a20766f746520616d6f756e74206f766572666c6f777346696e61546f6b656e3a3a7472616e7366657246726f6d3a207472616e7366657220616d6f756e742065786365656473207370656e64657220616c6c6f77616e636546696e61546f6b656e3a3a5f7472616e73666572546f6b656e733a207472616e7366657220616d6f756e7420657863656564732062616c616e636546696e61546f6b656e3a3a5f7472616e73666572546f6b656e733a207472616e7366657220616d6f756e74206f766572666c6f777346696e613a3a5f6d696e743a206d696e742062616c616e636520616d6f756e74206f766572666c6f7773a26469706673582212201c0269a8ce808adbcf5ab60f7fb06cbf95bb33f7c14d0aabb32de9c0dfbf443f64736f6c634300060c0033",
  "devdoc": {
    "kind": "dev",
    "methods": {
      "allowance(address,address)": {
        "params": {
          "account": "The address of the account holding the funds",
          "spender": "The address of the account spending the funds"
        },
        "returns": {
          "_0": "The number of tokens approved"
        }
      },
      "approve(address,uint256)": {
        "details": "This will overwrite the approval amount for `spender`  and is subject to issues noted [here](https://eips.ethereum.org/EIPS/eip-20#approve)",
        "params": {
          "rawAmount": "The number of tokens that are approved (2^256-1 means infinite)",
          "spender": "The address of the account which may transfer tokens"
        },
        "returns": {
          "_0": "Whether or not the approval succeeded"
        }
      },
      "balanceOf(address)": {
        "params": {
          "account": "The address of the account to get the balance of"
        },
        "returns": {
          "_0": "The number of tokens held"
        }
      },
      "decimals()": {
        "details": "Returns the number of decimals used to get its user representation. For example, if `decimals` equals `2`, a balance of `505` tokens should be displayed to a user as `5.05` (`505 / 10 ** 2`). Tokens usually opt for a value of 18, imitating the relationship between Ether and Wei. This is the value {ERC20} uses, unless this function is overridden; NOTE: This information is only used for _display_ purposes: it in no way affects any of the arithmetic of the contract, including {IERC20-balanceOf} and {IERC20-transfer}."
      },
      "delegate(address)": {
        "params": {
          "delegatee": "The address to delegate votes to"
        }
      },
      "delegateBySig(address,uint256,uint256,uint8,bytes32,bytes32)": {
        "params": {
          "delegatee": "The address to delegate votes to",
          "expiry": "The time at which to expire the signature",
          "nonce": "The contract state required to match the signature",
          "r": "Half of the ECDSA signature pair",
          "s": "Half of the ECDSA signature pair",
          "v": "The recovery byte of the signature"
        }
      },
      "getCurrentVotes(address)": {
        "params": {
          "account": "The address to get votes balance"
        },
        "returns": {
          "_0": "The number of current votes for `account`"
        }
      },
      "getPriorVotes(address,uint256)": {
        "details": "Block number must be a finalized block or else this function will revert to prevent misinformation.",
        "params": {
          "account": "The address of the account to check",
          "blockNumber": "The block number to get the vote balance at"
        },
        "returns": {
          "_0": "The number of votes the account had as of the given block"
        }
      },
      "getRoleAdmin(bytes32)": {
        "details": "Returns the admin role that controls `role`. See {grantRole} and {revokeRole}. To change a role's admin, use {_setRoleAdmin}."
      },
      "getRoleMember(bytes32,uint256)": {
        "details": "Returns one of the accounts that have `role`. `index` must be a value between 0 and {getRoleMemberCount}, non-inclusive. Role bearers are not sorted in any particular way, and their ordering may change at any point. WARNING: When using {getRoleMember} and {getRoleMemberCount}, make sure you perform all queries on the same block. See the following https://forum.openzeppelin.com/t/iterating-over-elements-on-enumerableset-in-openzeppelin-contracts/2296[forum post] for more information."
      },
      "getRoleMemberCount(bytes32)": {
        "details": "Returns the number of accounts that have `role`. Can be used together with {getRoleMember} to enumerate all bearers of a role."
      },
      "grantRole(bytes32,address)": {
        "details": "Grants `role` to `account`. If `account` had not been already granted `role`, emits a {RoleGranted} event. Requirements: - the caller must have ``role``'s admin role."
      },
      "hasRole(bytes32,address)": {
        "details": "Returns `true` if `account` has been granted `role`."
      },
      "name()": {
        "details": "Returns the name of the token."
      },
      "renounceRole(bytes32,address)": {
        "details": "Revokes `role` from the calling account. Roles are often managed via {grantRole} and {revokeRole}: this function's purpose is to provide a mechanism for accounts to lose their privileges if they are compromised (such as when a trusted device is misplaced). If the calling account had been granted `role`, emits a {RoleRevoked} event. Requirements: - the caller must be `account`."
      },
      "revokeRole(bytes32,address)": {
        "details": "Revokes `role` from `account`. If `account` had been granted `role`, emits a {RoleRevoked} event. Requirements: - the caller must have ``role``'s admin role."
      },
      "symbol()": {
        "details": "Returns the symbol of the token, usually a shorter version of the name."
      },
      "transfer(address,uint256)": {
        "params": {
          "dst": "The address of the destination account",
          "rawAmount": "The number of tokens to transfer"
        },
        "returns": {
          "_0": "Whether or not the transfer succeeded"
        }
      },
      "transferFrom(address,address,uint256)": {
        "params": {
          "dst": "The address of the destination account",
          "rawAmount": "The number of tokens to transfer",
          "src": "The address of the source account"
        },
        "returns": {
          "_0": "Whether or not the transfer succeeded"
        }
      }
    },
    "version": 1
  },
  "userdoc": {
    "events": {
      "Approval(address,address,uint256)": {
        "notice": "The standard EIP-20 approval event"
      },
      "DelegateChanged(address,address,address)": {
        "notice": "An event thats emitted when an account changes its delegate"
      },
      "DelegateVotesChanged(address,uint256,uint256)": {
        "notice": "An event thats emitted when a delegate account's vote balance changes"
      },
      "Transfer(address,address,uint256)": {
        "notice": "The standard EIP-20 transfer event"
      }
    },
    "kind": "user",
    "methods": {
      "DELEGATION_TYPEHASH()": {
        "notice": "The EIP-712 typehash for the delegation struct used by the contract"
      },
      "DOMAIN_TYPEHASH()": {
        "notice": "The EIP-712 typehash for the contract's domain"
      },
      "allowance(address,address)": {
        "notice": "Get the number of tokens `spender` is approved to spend on behalf of `account`"
      },
      "approve(address,uint256)": {
        "notice": "Approve `spender` to transfer up to `amount` from `src`"
      },
      "balanceOf(address)": {
        "notice": "Get the number of tokens held by the `account`"
      },
      "checkpoints(address,uint32)": {
        "notice": "A record of votes checkpoints for each account, by index"
      },
      "delegate(address)": {
        "notice": "Delegate votes from `msg.sender` to `delegatee`"
      },
      "delegateBySig(address,uint256,uint256,uint8,bytes32,bytes32)": {
        "notice": "Delegates votes from signatory to `delegatee`"
      },
      "delegates(address)": {
        "notice": "A record of each accounts delegate"
      },
      "getCurrentVotes(address)": {
        "notice": "Gets the current votes balance for `account`"
      },
      "getPriorVotes(address,uint256)": {
        "notice": "Determine the prior number of votes for an account as of a block number"
      },
      "mint(address,uint256)": {
        "notice": "Creates `_amount` token to `_to`."
      },
      "nonces(address)": {
        "notice": "A record of states for signing / validating signatures"
      },
      "numCheckpoints(address)": {
        "notice": "The number of checkpoints for each account"
      },
      "transfer(address,uint256)": {
        "notice": "Transfer `amount` tokens from `msg.sender` to `dst`"
      },
      "transferFrom(address,address,uint256)": {
        "notice": "Transfer `amount` tokens from `src` to `dst`"
      }
    },
    "version": 1
  },
  "storageLayout": {
    "storage": [
      {
        "astId": 22,
        "contract": "contracts/governance/FinaToken.sol:FinaToken",
        "label": "_roles",
        "offset": 0,
        "slot": "0",
        "type": "t_mapping(t_bytes32,t_struct(RoleData)18_storage)"
      },
      {
        "astId": 5402,
        "contract": "contracts/governance/FinaToken.sol:FinaToken",
        "label": "_totalSupply",
        "offset": 0,
        "slot": "1",
        "type": "t_uint256"
      },
      {
        "astId": 5405,
        "contract": "contracts/governance/FinaToken.sol:FinaToken",
        "label": "_name",
        "offset": 0,
        "slot": "2",
        "type": "t_string_storage"
      },
      {
        "astId": 5408,
        "contract": "contracts/governance/FinaToken.sol:FinaToken",
        "label": "_symbol",
        "offset": 0,
        "slot": "3",
        "type": "t_string_storage"
      },
      {
        "astId": 5411,
        "contract": "contracts/governance/FinaToken.sol:FinaToken",
        "label": "_decimals",
        "offset": 0,
        "slot": "4",
        "type": "t_uint8"
      },
      {
        "astId": 5467,
        "contract": "contracts/governance/FinaToken.sol:FinaToken",
        "label": "allowances",
        "offset": 0,
        "slot": "5",
        "type": "t_mapping(t_address,t_mapping(t_address,t_uint96))"
      },
      {
        "astId": 5471,
        "contract": "contracts/governance/FinaToken.sol:FinaToken",
        "label": "balances",
        "offset": 0,
        "slot": "6",
        "type": "t_mapping(t_address,t_uint96)"
      },
      {
        "astId": 5476,
        "contract": "contracts/governance/FinaToken.sol:FinaToken",
        "label": "delegates",
        "offset": 0,
        "slot": "7",
        "type": "t_mapping(t_address,t_address)"
      },
      {
        "astId": 5488,
        "contract": "contracts/governance/FinaToken.sol:FinaToken",
        "label": "checkpoints",
        "offset": 0,
        "slot": "8",
        "type": "t_mapping(t_address,t_mapping(t_uint32,t_struct(Checkpoint)5481_storage))"
      },
      {
        "astId": 5493,
        "contract": "contracts/governance/FinaToken.sol:FinaToken",
        "label": "numCheckpoints",
        "offset": 0,
        "slot": "9",
        "type": "t_mapping(t_address,t_uint32)"
      },
      {
        "astId": 5510,
        "contract": "contracts/governance/FinaToken.sol:FinaToken",
        "label": "nonces",
        "offset": 0,
        "slot": "10",
        "type": "t_mapping(t_address,t_uint256)"
      }
    ],
    "types": {
      "t_address": {
        "encoding": "inplace",
        "label": "address",
        "numberOfBytes": "20"
      },
      "t_array(t_bytes32)dyn_storage": {
        "base": "t_bytes32",
        "encoding": "dynamic_array",
        "label": "bytes32[]",
        "numberOfBytes": "32"
      },
      "t_bytes32": {
        "encoding": "inplace",
        "label": "bytes32",
        "numberOfBytes": "32"
      },
      "t_mapping(t_address,t_address)": {
        "encoding": "mapping",
        "key": "t_address",
        "label": "mapping(address => address)",
        "numberOfBytes": "32",
        "value": "t_address"
      },
      "t_mapping(t_address,t_mapping(t_address,t_uint96))": {
        "encoding": "mapping",
        "key": "t_address",
        "label": "mapping(address => mapping(address => uint96))",
        "numberOfBytes": "32",
        "value": "t_mapping(t_address,t_uint96)"
      },
      "t_mapping(t_address,t_mapping(t_uint32,t_struct(Checkpoint)5481_storage))": {
        "encoding": "mapping",
        "key": "t_address",
        "label": "mapping(address => mapping(uint32 => struct FinaToken.Checkpoint))",
        "numberOfBytes": "32",
        "value": "t_mapping(t_uint32,t_struct(Checkpoint)5481_storage)"
      },
      "t_mapping(t_address,t_uint256)": {
        "encoding": "mapping",
        "key": "t_address",
        "label": "mapping(address => uint256)",
        "numberOfBytes": "32",
        "value": "t_uint256"
      },
      "t_mapping(t_address,t_uint32)": {
        "encoding": "mapping",
        "key": "t_address",
        "label": "mapping(address => uint32)",
        "numberOfBytes": "32",
        "value": "t_uint32"
      },
      "t_mapping(t_address,t_uint96)": {
        "encoding": "mapping",
        "key": "t_address",
        "label": "mapping(address => uint96)",
        "numberOfBytes": "32",
        "value": "t_uint96"
      },
      "t_mapping(t_bytes32,t_struct(RoleData)18_storage)": {
        "encoding": "mapping",
        "key": "t_bytes32",
        "label": "mapping(bytes32 => struct AccessControl.RoleData)",
        "numberOfBytes": "32",
        "value": "t_struct(RoleData)18_storage"
      },
      "t_mapping(t_bytes32,t_uint256)": {
        "encoding": "mapping",
        "key": "t_bytes32",
        "label": "mapping(bytes32 => uint256)",
        "numberOfBytes": "32",
        "value": "t_uint256"
      },
      "t_mapping(t_uint32,t_struct(Checkpoint)5481_storage)": {
        "encoding": "mapping",
        "key": "t_uint32",
        "label": "mapping(uint32 => struct FinaToken.Checkpoint)",
        "numberOfBytes": "32",
        "value": "t_struct(Checkpoint)5481_storage"
      },
      "t_string_storage": {
        "encoding": "bytes",
        "label": "string",
        "numberOfBytes": "32"
      },
      "t_struct(AddressSet)2136_storage": {
        "encoding": "inplace",
        "label": "struct EnumerableSet.AddressSet",
        "members": [
          {
            "astId": 2135,
            "contract": "contracts/governance/FinaToken.sol:FinaToken",
            "label": "_inner",
            "offset": 0,
            "slot": "0",
            "type": "t_struct(Set)1871_storage"
          }
        ],
        "numberOfBytes": "64"
      },
      "t_struct(Checkpoint)5481_storage": {
        "encoding": "inplace",
        "label": "struct FinaToken.Checkpoint",
        "members": [
          {
            "astId": 5478,
            "contract": "contracts/governance/FinaToken.sol:FinaToken",
            "label": "fromBlock",
            "offset": 0,
            "slot": "0",
            "type": "t_uint32"
          },
          {
            "astId": 5480,
            "contract": "contracts/governance/FinaToken.sol:FinaToken",
            "label": "votes",
            "offset": 4,
            "slot": "0",
            "type": "t_uint96"
          }
        ],
        "numberOfBytes": "32"
      },
      "t_struct(RoleData)18_storage": {
        "encoding": "inplace",
        "label": "struct AccessControl.RoleData",
        "members": [
          {
            "astId": 15,
            "contract": "contracts/governance/FinaToken.sol:FinaToken",
            "label": "members",
            "offset": 0,
            "slot": "0",
            "type": "t_struct(AddressSet)2136_storage"
          },
          {
            "astId": 17,
            "contract": "contracts/governance/FinaToken.sol:FinaToken",
            "label": "adminRole",
            "offset": 0,
            "slot": "2",
            "type": "t_bytes32"
          }
        ],
        "numberOfBytes": "96"
      },
      "t_struct(Set)1871_storage": {
        "encoding": "inplace",
        "label": "struct EnumerableSet.Set",
        "members": [
          {
            "astId": 1866,
            "contract": "contracts/governance/FinaToken.sol:FinaToken",
            "label": "_values",
            "offset": 0,
            "slot": "0",
            "type": "t_array(t_bytes32)dyn_storage"
          },
          {
            "astId": 1870,
            "contract": "contracts/governance/FinaToken.sol:FinaToken",
            "label": "_indexes",
            "offset": 0,
            "slot": "1",
            "type": "t_mapping(t_bytes32,t_uint256)"
          }
        ],
        "numberOfBytes": "64"
      },
      "t_uint256": {
        "encoding": "inplace",
        "label": "uint256",
        "numberOfBytes": "32"
      },
      "t_uint32": {
        "encoding": "inplace",
        "label": "uint32",
        "numberOfBytes": "4"
      },
      "t_uint8": {
        "encoding": "inplace",
        "label": "uint8",
        "numberOfBytes": "1"
      },
      "t_uint96": {
        "encoding": "inplace",
        "label": "uint96",
        "numberOfBytes": "12"
      }
    }
  }
}